{
  "_format": "hh-sol-artifact-1",
  "contractName": "SecureVoting",
  "sourceName": "contracts/SecureVoting.sol",
  "abi": [
    {
      "inputs": [],
      "stateMutability": "nonpayable",
      "type": "constructor"
    },
    {
      "anonymous": false,
      "inputs": [
        {
          "indexed": true,
          "internalType": "uint256",
          "name": "proposalId",
          "type": "uint256"
        },
        {
          "indexed": false,
          "internalType": "string",
          "name": "description",
          "type": "string"
        }
      ],
      "name": "ProposalCreated",
      "type": "event"
    },
    {
      "anonymous": false,
      "inputs": [
        {
          "indexed": true,
          "internalType": "address",
          "name": "voter",
          "type": "address"
        },
        {
          "indexed": true,
          "internalType": "uint256",
          "name": "proposalId",
          "type": "uint256"
        }
      ],
      "name": "VoteCast",
      "type": "event"
    },
    {
      "anonymous": false,
      "inputs": [
        {
          "indexed": true,
          "internalType": "address",
          "name": "voter",
          "type": "address"
        }
      ],
      "name": "VoterRegistered",
      "type": "event"
    },
    {
      "inputs": [],
      "name": "admin",
      "outputs": [
        {
          "internalType": "address",
          "name": "",
          "type": "address"
        }
      ],
      "stateMutability": "view",
      "type": "function"
    },
    {
      "inputs": [
        {
          "internalType": "string",
          "name": "_description",
          "type": "string"
        }
      ],
      "name": "createProposal",
      "outputs": [],
      "stateMutability": "nonpayable",
      "type": "function"
    },
    {
      "inputs": [
        {
          "internalType": "uint256",
          "name": "_proposalId",
          "type": "uint256"
        }
      ],
      "name": "getProposal",
      "outputs": [
        {
          "internalType": "string",
          "name": "description",
          "type": "string"
        },
        {
          "internalType": "uint256",
          "name": "voteCount",
          "type": "uint256"
        }
      ],
      "stateMutability": "view",
      "type": "function"
    },
    {
      "inputs": [],
      "name": "getProposalsCount",
      "outputs": [
        {
          "internalType": "uint256",
          "name": "",
          "type": "uint256"
        }
      ],
      "stateMutability": "view",
      "type": "function"
    },
    {
      "inputs": [
        {
          "internalType": "uint256",
          "name": "",
          "type": "uint256"
        }
      ],
      "name": "proposals",
      "outputs": [
        {
          "internalType": "string",
          "name": "description",
          "type": "string"
        },
        {
          "internalType": "uint256",
          "name": "voteCount",
          "type": "uint256"
        },
        {
          "internalType": "bool",
          "name": "exists",
          "type": "bool"
        }
      ],
      "stateMutability": "view",
      "type": "function"
    },
    {
      "inputs": [],
      "name": "registerVoter",
      "outputs": [],
      "stateMutability": "nonpayable",
      "type": "function"
    },
    {
      "inputs": [
        {
          "internalType": "uint256",
          "name": "_proposalId",
          "type": "uint256"
        }
      ],
      "name": "vote",
      "outputs": [],
      "stateMutability": "nonpayable",
      "type": "function"
    },
    {
      "inputs": [
        {
          "internalType": "address",
          "name": "",
          "type": "address"
        }
      ],
      "name": "voters",
      "outputs": [
        {
          "internalType": "bool",
          "name": "isRegistered",
          "type": "bool"
        },
        {
          "internalType": "bool",
          "name": "hasVoted",
          "type": "bool"
        },
        {
          "internalType": "uint256",
          "name": "vote",
          "type": "uint256"
        }
      ],
      "stateMutability": "view",
      "type": "function"
    }
  ],
  "bytecode": "0x608060405234801561001057600080fd5b50336000806101000a81548173ffffffffffffffffffffffffffffffffffffffff021916908373ffffffffffffffffffffffffffffffffffffffff16021790555061140f806100606000396000f3fe608060405234801561001057600080fd5b50600436106100885760003560e01c8063a3ec138d1161005b578063a3ec138d14610115578063c7f758a814610147578063ecb617d914610178578063f851a4401461018257610088565b80630121b93f1461008d578063013cf08b146100a957806349c2a1a6146100db57806398e527d3146100f7575b600080fd5b6100a760048036038101906100a291906109ea565b6101a0565b005b6100c360048036038101906100be91906109ea565b610427565b6040516100d293929190610ad1565b60405180910390f35b6100f560048036038101906100f09190610b74565b6104f6565b005b6100ff6106a2565b60405161010c9190610bc1565b60405180910390f35b61012f600480360381019061012a9190610c3a565b6106af565b60405161013e93929190610c67565b60405180910390f35b610161600480360381019061015c91906109ea565b6106f3565b60405161016f929190610c9e565b60405180910390f35b610180610803565b005b61018a610986565b6040516101979190610cdd565b60405180910390f35b600260003373ffffffffffffffffffffffffffffffffffffffff1673ffffffffffffffffffffffffffffffffffffffff16815260200190815260200160002060000160009054906101000a900460ff1661022f576040517f08c379a000000000000000000000000000000000000000000000000000000000815260040161022690610d44565b60405180910390fd5b6000600260003373ffffffffffffffffffffffffffffffffffffffff1673ffffffffffffffffffffffffffffffffffffffff16815260200190815260200160002090508060000160019054906101000a900460ff16156102c4576040517f08c379a00000000000000000000000000000000000000000000000000000000081526004016102bb90610db0565b60405180910390fd5b600180549050821061030b576040517f08c379a000000000000000000000000000000000000000000000000000000000815260040161030290610e1c565b60405180910390fd5b6001828154811061031f5761031e610e3c565b5b906000526020600020906003020160020160009054906101000a900460ff1661037d576040517f08c379a000000000000000000000000000000000000000000000000000000000815260040161037490610eb7565b60405180910390fd5b60018160000160016101000a81548160ff02191690831515021790555081816001018190555060018083815481106103b8576103b7610e3c565b5b906000526020600020906003020160010160008282546103d89190610f06565b92505081905550813373ffffffffffffffffffffffffffffffffffffffff167fa36cc2bebb74db33e9f88110a07ef56e1b31b24b4c4f51b54b1664266e29f45b60405160405180910390a35050565b6001818154811061043757600080fd5b906000526020600020906003020160009150905080600001805461045a90610f69565b80601f016020809104026020016040519081016040528092919081815260200182805461048690610f69565b80156104d35780601f106104a8576101008083540402835291602001916104d3565b820191906000526020600020905b8154815290600101906020018083116104b657829003601f168201915b5050505050908060010154908060020160009054906101000a900460ff16905083565b60008054906101000a900473ffffffffffffffffffffffffffffffffffffffff1673ffffffffffffffffffffffffffffffffffffffff163373ffffffffffffffffffffffffffffffffffffffff1614610584576040517f08c379a000000000000000000000000000000000000000000000000000000000815260040161057b9061100c565b60405180910390fd5b6001604051806060016040528084848080601f016020809104026020016040519081016040528093929190818152602001838380828437600081840152601f19601f8201169050808301925050505050505081526020016000815260200160011515815250908060018154018082558091505060019003906000526020600020906003020160009091909190915060008201518160000190816106279190611207565b506020820151816001015560408201518160020160006101000a81548160ff02191690831515021790555050506001808054905061066591906112d9565b7f9c770c289ab5bf7e57cb1d23c8ceae993aea46eb64847072fd3d78ca60d3e4328383604051610696929190611349565b60405180910390a25050565b6000600180549050905090565b60026020528060005260406000206000915090508060000160009054906101000a900460ff16908060000160019054906101000a900460ff16908060010154905083565b60606000600180549050831061073e576040517f08c379a000000000000000000000000000000000000000000000000000000000815260040161073590610e1c565b60405180910390fd5b60006001848154811061075457610753610e3c565b5b9060005260206000209060030201905080600001816001015481805461077990610f69565b80601f01602080910402602001604051908101604052809291908181526020018280546107a590610f69565b80156107f25780601f106107c7576101008083540402835291602001916107f2565b820191906000526020600020905b8154815290600101906020018083116107d557829003601f168201915b505050505091509250925050915091565b600260003373ffffffffffffffffffffffffffffffffffffffff1673ffffffffffffffffffffffffffffffffffffffff16815260200190815260200160002060000160009054906101000a900460ff1615610893576040517f08c379a000000000000000000000000000000000000000000000000000000000815260040161088a906113b9565b60405180910390fd5b60405180606001604052806001151581526020016000151581526020016000815250600260003373ffffffffffffffffffffffffffffffffffffffff1673ffffffffffffffffffffffffffffffffffffffff16815260200190815260200160002060008201518160000160006101000a81548160ff02191690831515021790555060208201518160000160016101000a81548160ff021916908315150217905550604082015181600101559050503373ffffffffffffffffffffffffffffffffffffffff167fb6be2187d059cc2a55fe29e0e503b566e1e0f8c8780096e185429350acffd3dd60405160405180910390a2565b60008054906101000a900473ffffffffffffffffffffffffffffffffffffffff1681565b600080fd5b600080fd5b6000819050919050565b6109c7816109b4565b81146109d257600080fd5b50565b6000813590506109e4816109be565b92915050565b600060208284031215610a00576109ff6109aa565b5b6000610a0e848285016109d5565b91505092915050565b600081519050919050565b600082825260208201905092915050565b60005b83811015610a51578082015181840152602081019050610a36565b60008484015250505050565b6000601f19601f8301169050919050565b6000610a7982610a17565b610a838185610a22565b9350610a93818560208601610a33565b610a9c81610a5d565b840191505092915050565b610ab0816109b4565b82525050565b60008115159050919050565b610acb81610ab6565b82525050565b60006060820190508181036000830152610aeb8186610a6e565b9050610afa6020830185610aa7565b610b076040830184610ac2565b949350505050565b600080fd5b600080fd5b600080fd5b60008083601f840112610b3457610b33610b0f565b5b8235905067ffffffffffffffff811115610b5157610b50610b14565b5b602083019150836001820283011115610b6d57610b6c610b19565b5b9250929050565b60008060208385031215610b8b57610b8a6109aa565b5b600083013567ffffffffffffffff811115610ba957610ba86109af565b5b610bb585828601610b1e565b92509250509250929050565b6000602082019050610bd66000830184610aa7565b92915050565b600073ffffffffffffffffffffffffffffffffffffffff82169050919050565b6000610c0782610bdc565b9050919050565b610c1781610bfc565b8114610c2257600080fd5b50565b600081359050610c3481610c0e565b92915050565b600060208284031215610c5057610c4f6109aa565b5b6000610c5e84828501610c25565b91505092915050565b6000606082019050610c7c6000830186610ac2565b610c896020830185610ac2565b610c966040830184610aa7565b949350505050565b60006040820190508181036000830152610cb88185610a6e565b9050610cc76020830184610aa7565b9392505050565b610cd781610bfc565b82525050565b6000602082019050610cf26000830184610cce565b92915050565b7f596f75206d757374206265207265676973746572656420746f20766f74650000600082015250565b6000610d2e601e83610a22565b9150610d3982610cf8565b602082019050919050565b60006020820190508181036000830152610d5d81610d21565b9050919050565b7f596f75206861766520616c726561647920766f74656400000000000000000000600082015250565b6000610d9a601683610a22565b9150610da582610d64565b602082019050919050565b60006020820190508181036000830152610dc981610d8d565b9050919050565b7f496e76616c69642070726f706f73616c20494400000000000000000000000000600082015250565b6000610e06601383610a22565b9150610e1182610dd0565b602082019050919050565b60006020820190508181036000830152610e3581610df9565b9050919050565b7f4e487b7100000000000000000000000000000000000000000000000000000000600052603260045260246000fd5b7f50726f706f73616c20646f6573206e6f74206578697374000000000000000000600082015250565b6000610ea1601783610a22565b9150610eac82610e6b565b602082019050919050565b60006020820190508181036000830152610ed081610e94565b9050919050565b7f4e487b7100000000000000000000000000000000000000000000000000000000600052601160045260246000fd5b6000610f11826109b4565b9150610f1c836109b4565b9250828201905080821115610f3457610f33610ed7565b5b92915050565b7f4e487b7100000000000000000000000000000000000000000000000000000000600052602260045260246000fd5b60006002820490506001821680610f8157607f821691505b602082108103610f9457610f93610f3a565b5b50919050565b7f4f6e6c792061646d696e2063616e20706572666f726d2074686973206163746960008201527f6f6e000000000000000000000000000000000000000000000000000000000000602082015250565b6000610ff6602283610a22565b915061100182610f9a565b604082019050919050565b6000602082019050818103600083015261102581610fe9565b9050919050565b7f4e487b7100000000000000000000000000000000000000000000000000000000600052604160045260246000fd5b60008190508160005260206000209050919050565b60006020601f8301049050919050565b600082821b905092915050565b6000600883026110bd7fffffffffffffffffffffffffffffffffffffffffffffffffffffffffffffffff82611080565b6110c78683611080565b95508019841693508086168417925050509392505050565b6000819050919050565b60006111046110ff6110fa846109b4565b6110df565b6109b4565b9050919050565b6000819050919050565b61111e836110e9565b61113261112a8261110b565b84845461108d565b825550505050565b600090565b61114761113a565b611152818484611115565b505050565b5b818110156111765761116b60008261113f565b600181019050611158565b5050565b601f8211156111bb5761118c8161105b565b61119584611070565b810160208510156111a4578190505b6111b86111b085611070565b830182611157565b50505b505050565b600082821c905092915050565b60006111de600019846008026111c0565b1980831691505092915050565b60006111f783836111cd565b9150826002028217905092915050565b61121082610a17565b67ffffffffffffffff8111156112295761122861102c565b5b6112338254610f69565b61123e82828561117a565b600060209050601f831160018114611271576000841561125f578287015190505b61126985826111eb565b8655506112d1565b601f19841661127f8661105b565b60005b828110156112a757848901518255600182019150602085019450602081019050611282565b868310156112c457848901516112c0601f8916826111cd565b8355505b6001600288020188555050505b505050505050565b60006112e4826109b4565b91506112ef836109b4565b925082820390508181111561130757611306610ed7565b5b92915050565b82818337600083830152505050565b60006113288385610a22565b935061133583858461130d565b61133e83610a5d565b840190509392505050565b6000602082019050818103600083015261136481848661131c565b90509392505050565b7f596f752061726520616c72656164792072656769737465726564000000000000600082015250565b60006113a3601a83610a22565b91506113ae8261136d565b602082019050919050565b600060208201905081810360008301526113d281611396565b905091905056fea2646970667358221220af5891188cb53a8d898919da4bc038386d008aa68a671f975243aa484720079364736f6c63430008180033",
  "linkReferences": {},
  "deployedLinkReferences": {}
}